{
  "_format": "hh-sol-artifact-1",
  "contractName": "Vault",
  "sourceName": "contracts/Vault.sol",
  "abi": [
    {
      "inputs": [],
      "stateMutability": "nonpayable",
      "type": "constructor"
    },
    {
      "inputs": [],
      "name": "notAuthorized",
      "type": "error"
    },
    {
      "anonymous": false,
      "inputs": [
        {
          "indexed": true,
          "internalType": "address",
          "name": "owner",
          "type": "address"
        },
        {
          "indexed": true,
          "internalType": "address",
          "name": "spender",
          "type": "address"
        },
        {
          "indexed": false,
          "internalType": "uint256",
          "name": "value",
          "type": "uint256"
        }
      ],
      "name": "Approval",
      "type": "event"
    },
    {
      "anonymous": false,
      "inputs": [
        {
          "indexed": true,
          "internalType": "address",
          "name": "from",
          "type": "address"
        },
        {
          "indexed": true,
          "internalType": "address",
          "name": "to",
          "type": "address"
        },
        {
          "indexed": false,
          "internalType": "uint256",
          "name": "value",
          "type": "uint256"
        }
      ],
      "name": "Transfer",
      "type": "event"
    },
    {
      "anonymous": false,
      "inputs": [
        {
          "indexed": false,
          "internalType": "address",
          "name": "sender",
          "type": "address"
        },
        {
          "indexed": false,
          "internalType": "uint256",
          "name": "value",
          "type": "uint256"
        }
      ],
      "name": "deposit",
      "type": "event"
    },
    {
      "anonymous": false,
      "inputs": [
        {
          "indexed": false,
          "internalType": "address",
          "name": "_owner",
          "type": "address"
        },
        {
          "indexed": false,
          "internalType": "uint256",
          "name": "_amount",
          "type": "uint256"
        }
      ],
      "name": "redeemed",
      "type": "event"
    },
    {
      "anonymous": false,
      "inputs": [
        {
          "indexed": false,
          "internalType": "address",
          "name": "_strategy",
          "type": "address"
        },
        {
          "indexed": false,
          "internalType": "uint256",
          "name": "tokenBalance",
          "type": "uint256"
        }
      ],
      "name": "stratTransfer",
      "type": "event"
    },
    {
      "inputs": [
        {
          "internalType": "address",
          "name": "owner",
          "type": "address"
        },
        {
          "internalType": "address",
          "name": "spender",
          "type": "address"
        }
      ],
      "name": "allowance",
      "outputs": [
        {
          "internalType": "uint256",
          "name": "",
          "type": "uint256"
        }
      ],
      "stateMutability": "view",
      "type": "function"
    },
    {
      "inputs": [
        {
          "internalType": "address",
          "name": "spender",
          "type": "address"
        },
        {
          "internalType": "uint256",
          "name": "amount",
          "type": "uint256"
        }
      ],
      "name": "approve",
      "outputs": [
        {
          "internalType": "bool",
          "name": "",
          "type": "bool"
        }
      ],
      "stateMutability": "nonpayable",
      "type": "function"
    },
    {
      "inputs": [
        {
          "internalType": "address",
          "name": "",
          "type": "address"
        }
      ],
      "name": "authorized",
      "outputs": [
        {
          "internalType": "bool",
          "name": "",
          "type": "bool"
        }
      ],
      "stateMutability": "view",
      "type": "function"
    },
    {
      "inputs": [
        {
          "internalType": "address",
          "name": "account",
          "type": "address"
        }
      ],
      "name": "balanceOf",
      "outputs": [
        {
          "internalType": "uint256",
          "name": "",
          "type": "uint256"
        }
      ],
      "stateMutability": "view",
      "type": "function"
    },
    {
      "inputs": [
        {
          "internalType": "address",
          "name": "_user",
          "type": "address"
        }
      ],
      "name": "calculateRewards",
      "outputs": [
        {
          "internalType": "uint256",
          "name": "",
          "type": "uint256"
        }
      ],
      "stateMutability": "nonpayable",
      "type": "function"
    },
    {
      "inputs": [],
      "name": "decimals",
      "outputs": [
        {
          "internalType": "uint8",
          "name": "",
          "type": "uint8"
        }
      ],
      "stateMutability": "view",
      "type": "function"
    },
    {
      "inputs": [
        {
          "internalType": "address",
          "name": "spender",
          "type": "address"
        },
        {
          "internalType": "uint256",
          "name": "subtractedValue",
          "type": "uint256"
        }
      ],
      "name": "decreaseAllowance",
      "outputs": [
        {
          "internalType": "bool",
          "name": "",
          "type": "bool"
        }
      ],
      "stateMutability": "nonpayable",
      "type": "function"
    },
    {
      "inputs": [],
      "name": "depositETH",
      "outputs": [
        {
          "internalType": "bool",
          "name": "",
          "type": "bool"
        }
      ],
      "stateMutability": "payable",
      "type": "function"
    },
    {
      "inputs": [
        {
          "internalType": "address",
          "name": "spender",
          "type": "address"
        },
        {
          "internalType": "uint256",
          "name": "addedValue",
          "type": "uint256"
        }
      ],
      "name": "increaseAllowance",
      "outputs": [
        {
          "internalType": "bool",
          "name": "",
          "type": "bool"
        }
      ],
      "stateMutability": "nonpayable",
      "type": "function"
    },
    {
      "inputs": [],
      "name": "name",
      "outputs": [
        {
          "internalType": "string",
          "name": "",
          "type": "string"
        }
      ],
      "stateMutability": "view",
      "type": "function"
    },
    {
      "inputs": [
        {
          "internalType": "uint256",
          "name": "_amount",
          "type": "uint256"
        }
      ],
      "name": "redeem",
      "outputs": [
        {
          "internalType": "bool",
          "name": "",
          "type": "bool"
        }
      ],
      "stateMutability": "nonpayable",
      "type": "function"
    },
    {
      "inputs": [],
      "name": "symbol",
      "outputs": [
        {
          "internalType": "string",
          "name": "",
          "type": "string"
        }
      ],
      "stateMutability": "view",
      "type": "function"
    },
    {
      "inputs": [],
      "name": "totalSupply",
      "outputs": [
        {
          "internalType": "uint256",
          "name": "",
          "type": "uint256"
        }
      ],
      "stateMutability": "view",
      "type": "function"
    },
    {
      "inputs": [
        {
          "internalType": "address",
          "name": "to",
          "type": "address"
        },
        {
          "internalType": "uint256",
          "name": "amount",
          "type": "uint256"
        }
      ],
      "name": "transfer",
      "outputs": [
        {
          "internalType": "bool",
          "name": "",
          "type": "bool"
        }
      ],
      "stateMutability": "nonpayable",
      "type": "function"
    },
    {
      "inputs": [
        {
          "internalType": "address",
          "name": "from",
          "type": "address"
        },
        {
          "internalType": "address",
          "name": "to",
          "type": "address"
        },
        {
          "internalType": "uint256",
          "name": "amount",
          "type": "uint256"
        }
      ],
      "name": "transferFrom",
      "outputs": [
        {
          "internalType": "bool",
          "name": "",
          "type": "bool"
        }
      ],
      "stateMutability": "nonpayable",
      "type": "function"
    },
    {
      "inputs": [],
      "name": "userBalance",
      "outputs": [
        {
          "internalType": "uint256",
          "name": "",
          "type": "uint256"
        }
      ],
      "stateMutability": "view",
      "type": "function"
    },
    {
      "inputs": [],
      "name": "userTimestamp",
      "outputs": [
        {
          "internalType": "uint256",
          "name": "",
          "type": "uint256"
        }
      ],
      "stateMutability": "view",
      "type": "function"
    },
    {
      "inputs": [
        {
          "internalType": "address",
          "name": "",
          "type": "address"
        }
      ],
      "name": "userToBalance",
      "outputs": [
        {
          "internalType": "uint256",
          "name": "",
          "type": "uint256"
        }
      ],
      "stateMutability": "view",
      "type": "function"
    },
    {
      "inputs": [
        {
          "internalType": "address",
          "name": "",
          "type": "address"
        }
      ],
      "name": "userToTimestamp",
      "outputs": [
        {
          "internalType": "uint256",
          "name": "",
          "type": "uint256"
        }
      ],
      "stateMutability": "view",
      "type": "function"
    },
    {
      "inputs": [],
      "name": "vaultBalance",
      "outputs": [
        {
          "internalType": "uint256",
          "name": "",
          "type": "uint256"
        }
      ],
      "stateMutability": "view",
      "type": "function"
    }
  ],
  "bytecode": "0x60806040523480156200001157600080fd5b506040518060400160405280601081526020017f416e746569204661726d20546f6b656e000000000000000000000000000000008152506040518060400160405280600581526020017f414e54454900000000000000000000000000000000000000000000000000000081525081600390805190602001906200009692919062000103565b508060049080519060200190620000af92919062000103565b505050600560003373ffffffffffffffffffffffffffffffffffffffff1673ffffffffffffffffffffffffffffffffffffffff16815260200190815260200160002060009054906101000a90505062000218565b8280546200011190620001b3565b90600052602060002090601f01602090048101928262000135576000855562000181565b82601f106200015057805160ff191683800117855562000181565b8280016001018555821562000181579182015b828111156200018057825182559160200191906001019062000163565b5b50905062000190919062000194565b5090565b5b80821115620001af57600081600090555060010162000195565b5090565b60006002820490506001821680620001cc57607f821691505b60208210811415620001e357620001e2620001e9565b5b50919050565b7f4e487b7100000000000000000000000000000000000000000000000000000000600052602260045260246000fd5b61232a80620002286000396000f3fe60806040526004361061011f5760003560e01c806395d89b41116100a0578063db006a7511610064578063db006a7514610439578063dc33be0e14610476578063dd62ed3e146104b3578063f6326fb3146104f0578063fe57109d1461050e5761011f565b806395d89b411461032c578063a457c2d714610357578063a9059cbb14610394578063b9181611146103d1578063bf1527651461040e5761011f565b8063313ce567116100e7578063313ce5671461021f578063395093511461024a57806364ab8675146102875780636936fac1146102c457806370a08231146102ef5761011f565b806306fdde0314610124578063095ea7b31461014f5780630bf6cc081461018c57806318160ddd146101b757806323b872dd146101e2575b600080fd5b34801561013057600080fd5b5061013961054b565b6040516101469190611b33565b60405180910390f35b34801561015b57600080fd5b50610176600480360381019061017191906117f3565b6105dd565b6040516101839190611b18565b60405180910390f35b34801561019857600080fd5b506101a1610600565b6040516101ae9190611d45565b60405180910390f35b3480156101c357600080fd5b506101cc610608565b6040516101d99190611d45565b60405180910390f35b3480156101ee57600080fd5b50610209600480360381019061020491906117a4565b610612565b6040516102169190611b18565b60405180910390f35b34801561022b57600080fd5b50610234610641565b6040516102419190611d60565b60405180910390f35b34801561025657600080fd5b50610271600480360381019061026c91906117f3565b61064a565b60405161027e9190611b18565b60405180910390f35b34801561029357600080fd5b506102ae60048036038101906102a9919061173f565b610681565b6040516102bb9190611d45565b60405180910390f35b3480156102d057600080fd5b506102d961072b565b6040516102e69190611d45565b60405180910390f35b3480156102fb57600080fd5b506103166004803603810190610311919061173f565b610772565b6040516103239190611d45565b60405180910390f35b34801561033857600080fd5b506103416107ba565b60405161034e9190611b33565b60405180910390f35b34801561036357600080fd5b5061037e600480360381019061037991906117f3565b61084c565b60405161038b9190611b18565b60405180910390f35b3480156103a057600080fd5b506103bb60048036038101906103b691906117f3565b6108c3565b6040516103c89190611b18565b60405180910390f35b3480156103dd57600080fd5b506103f860048036038101906103f3919061173f565b6108e6565b6040516104059190611b18565b60405180910390f35b34801561041a57600080fd5b50610423610906565b6040516104309190611d45565b60405180910390f35b34801561044557600080fd5b50610460600480360381019061045b919061182f565b61094d565b60405161046d9190611b18565b60405180910390f35b34801561048257600080fd5b5061049d6004803603810190610498919061173f565b610c50565b6040516104aa9190611d45565b60405180910390f35b3480156104bf57600080fd5b506104da60048036038101906104d59190611768565b610c68565b6040516104e79190611d45565b60405180910390f35b6104f8610cef565b6040516105059190611b18565b60405180910390f35b34801561051a57600080fd5b506105356004803603810190610530919061173f565b610e17565b6040516105429190611d45565b60405180910390f35b60606003805461055a90611eb4565b80601f016020809104026020016040519081016040528092919081815260200182805461058690611eb4565b80156105d35780601f106105a8576101008083540402835291602001916105d3565b820191906000526020600020905b8154815290600101906020018083116105b657829003601f168201915b5050505050905090565b6000806105e8610e2f565b90506105f5818585610e37565b600191505092915050565b600047905090565b6000600254905090565b60008061061d610e2f565b905061062a858285611002565b61063585858561108e565b60019150509392505050565b60006012905090565b600080610655610e2f565b90506106768185856106678589610c68565b6106719190611da2565b610e37565b600191505092915050565b600080600760008473ffffffffffffffffffffffffffffffffffffffff1673ffffffffffffffffffffffffffffffffffffffff1681526020019081526020016000205490506000429050600082826106d99190611df8565b9050600081905061071f6040518060400160405280601881526020017f2d2d3e2043414c43554c415445205245574152443a20257300000000000000008152508261130f565b80945050505050919050565b6000600760003373ffffffffffffffffffffffffffffffffffffffff1673ffffffffffffffffffffffffffffffffffffffff16815260200190815260200160002054905090565b60008060008373ffffffffffffffffffffffffffffffffffffffff1673ffffffffffffffffffffffffffffffffffffffff168152602001908152602001600020549050919050565b6060600480546107c990611eb4565b80601f01602080910402602001604051908101604052809291908181526020018280546107f590611eb4565b80156108425780601f1061081757610100808354040283529160200191610842565b820191906000526020600020905b81548152906001019060200180831161082557829003601f168201915b5050505050905090565b600080610857610e2f565b905060006108658286610c68565b9050838110156108aa576040517f08c379a00000000000000000000000000000000000000000000000000000000081526004016108a190611d05565b60405180910390fd5b6108b78286868403610e37565b60019250505092915050565b6000806108ce610e2f565b90506108db81858561108e565b600191505092915050565b60056020528060005260406000206000915054906101000a900460ff1681565b6000600660003373ffffffffffffffffffffffffffffffffffffffff1673ffffffffffffffffffffffffffffffffffffffff16815260200190815260200160002054905090565b6000808211610991576040517f08c379a000000000000000000000000000000000000000000000000000000000815260040161098890611c85565b60405180910390fd5b600061099b610906565b9050828110156109e0576040517f08c379a00000000000000000000000000000000000000000000000000000000081526004016109d790611c65565b60405180910390fd5b600083826109ee9190611df8565b905080600660003373ffffffffffffffffffffffffffffffffffffffff1673ffffffffffffffffffffffffffffffffffffffff16815260200190815260200160002081905550610a3e33856113ab565b6000610a4933610681565b905060008186610a599190611da2565b905047811115610b59576000803373ffffffffffffffffffffffffffffffffffffffff1688604051610a8a90611ada565b60006040518083038185875af1925050503d8060008114610ac7576040519150601f19603f3d011682016040523d82523d6000602084013e610acc565b606091505b509150915081610b11576040517f08c379a0000000000000000000000000000000000000000000000000000000008152600401610b0890611be5565b60405180910390fd5b7fdf6a6b38f34402c0ba80b47405008313822040f95eced1d637852f9eeb08fc823389604051610b42929190611aef565b60405180910390a160019650505050505050610c4b565b6000803373ffffffffffffffffffffffffffffffffffffffff1683604051610b8090611ada565b60006040518083038185875af1925050503d8060008114610bbd576040519150601f19603f3d011682016040523d82523d6000602084013e610bc2565b606091505b509150915081610c07576040517f08c379a0000000000000000000000000000000000000000000000000000000008152600401610bfe90611be5565b60405180910390fd5b7fdf6a6b38f34402c0ba80b47405008313822040f95eced1d637852f9eeb08fc823384604051610c38929190611aef565b60405180910390a1600196505050505050505b919050565b60066020528060005260406000206000915090505481565b6000600160008473ffffffffffffffffffffffffffffffffffffffff1673ffffffffffffffffffffffffffffffffffffffff16815260200190815260200160002060008373ffffffffffffffffffffffffffffffffffffffff1673ffffffffffffffffffffffffffffffffffffffff16815260200190815260200160002054905092915050565b6000803411610d33576040517f08c379a0000000000000000000000000000000000000000000000000000000008152600401610d2a90611c45565b60405180910390fd5b34600660003373ffffffffffffffffffffffffffffffffffffffff1673ffffffffffffffffffffffffffffffffffffffff1681526020019081526020016000206000828254610d829190611da2565b92505081905550610d933334611582565b42600760003373ffffffffffffffffffffffffffffffffffffffff1673ffffffffffffffffffffffffffffffffffffffff168152602001908152602001600020819055507f47e7ef24b3022e382e65b1298581281f0ae273ac4f76464efcf5b06769264f2f3334604051610e08929190611aef565b60405180910390a16001905090565b60076020528060005260406000206000915090505481565b600033905090565b600073ffffffffffffffffffffffffffffffffffffffff168373ffffffffffffffffffffffffffffffffffffffff161415610ea7576040517f08c379a0000000000000000000000000000000000000000000000000000000008152600401610e9e90611ce5565b60405180910390fd5b600073ffffffffffffffffffffffffffffffffffffffff168273ffffffffffffffffffffffffffffffffffffffff161415610f17576040517f08c379a0000000000000000000000000000000000000000000000000000000008152600401610f0e90611bc5565b60405180910390fd5b80600160008573ffffffffffffffffffffffffffffffffffffffff1673ffffffffffffffffffffffffffffffffffffffff16815260200190815260200160002060008473ffffffffffffffffffffffffffffffffffffffff1673ffffffffffffffffffffffffffffffffffffffff168152602001908152602001600020819055508173ffffffffffffffffffffffffffffffffffffffff168373ffffffffffffffffffffffffffffffffffffffff167f8c5be1e5ebec7d5bd14f71427d1e84f3dd0314c0f7b2291e5b200ac8c7c3b92583604051610ff59190611d45565b60405180910390a3505050565b600061100e8484610c68565b90507fffffffffffffffffffffffffffffffffffffffffffffffffffffffffffffffff8114611088578181101561107a576040517f08c379a000000000000000000000000000000000000000000000000000000000815260040161107190611c05565b60405180910390fd5b6110878484848403610e37565b5b50505050565b600073ffffffffffffffffffffffffffffffffffffffff168373ffffffffffffffffffffffffffffffffffffffff1614156110fe576040517f08c379a00000000000000000000000000000000000000000000000000000000081526004016110f590611cc5565b60405180910390fd5b600073ffffffffffffffffffffffffffffffffffffffff168273ffffffffffffffffffffffffffffffffffffffff16141561116e576040517f08c379a000000000000000000000000000000000000000000000000000000000815260040161116590611b85565b60405180910390fd5b6111798383836116e2565b60008060008573ffffffffffffffffffffffffffffffffffffffff1673ffffffffffffffffffffffffffffffffffffffff168152602001908152602001600020549050818110156111ff576040517f08c379a00000000000000000000000000000000000000000000000000000000081526004016111f690611c25565b60405180910390fd5b8181036000808673ffffffffffffffffffffffffffffffffffffffff1673ffffffffffffffffffffffffffffffffffffffff16815260200190815260200160002081905550816000808573ffffffffffffffffffffffffffffffffffffffff1673ffffffffffffffffffffffffffffffffffffffff16815260200190815260200160002060008282546112929190611da2565b925050819055508273ffffffffffffffffffffffffffffffffffffffff168473ffffffffffffffffffffffffffffffffffffffff167fddf252ad1be2c89b69c2b068fc378daa952ba7f163c4a11628f55a4df523b3ef846040516112f69190611d45565b60405180910390a36113098484846116e7565b50505050565b6113a78282604051602401611325929190611b55565b6040516020818303038152906040527f9710a9d0000000000000000000000000000000000000000000000000000000007bffffffffffffffffffffffffffffffffffffffffffffffffffffffff19166020820180517bffffffffffffffffffffffffffffffffffffffffffffffffffffffff83818316178352505050506116ec565b5050565b600073ffffffffffffffffffffffffffffffffffffffff168273ffffffffffffffffffffffffffffffffffffffff16141561141b576040517f08c379a000000000000000000000000000000000000000000000000000000000815260040161141290611ca5565b60405180910390fd5b611427826000836116e2565b60008060008473ffffffffffffffffffffffffffffffffffffffff1673ffffffffffffffffffffffffffffffffffffffff168152602001908152602001600020549050818110156114ad576040517f08c379a00000000000000000000000000000000000000000000000000000000081526004016114a490611ba5565b60405180910390fd5b8181036000808573ffffffffffffffffffffffffffffffffffffffff1673ffffffffffffffffffffffffffffffffffffffff1681526020019081526020016000208190555081600260008282546115049190611df8565b92505081905550600073ffffffffffffffffffffffffffffffffffffffff168373ffffffffffffffffffffffffffffffffffffffff167fddf252ad1be2c89b69c2b068fc378daa952ba7f163c4a11628f55a4df523b3ef846040516115699190611d45565b60405180910390a361157d836000846116e7565b505050565b600073ffffffffffffffffffffffffffffffffffffffff168273ffffffffffffffffffffffffffffffffffffffff1614156115f2576040517f08c379a00000000000000000000000000000000000000000000000000000000081526004016115e990611d25565b60405180910390fd5b6115fe600083836116e2565b80600260008282546116109190611da2565b92505081905550806000808473ffffffffffffffffffffffffffffffffffffffff1673ffffffffffffffffffffffffffffffffffffffff16815260200190815260200160002060008282546116659190611da2565b925050819055508173ffffffffffffffffffffffffffffffffffffffff16600073ffffffffffffffffffffffffffffffffffffffff167fddf252ad1be2c89b69c2b068fc378daa952ba7f163c4a11628f55a4df523b3ef836040516116ca9190611d45565b60405180910390a36116de600083836116e7565b5050565b505050565b505050565b60008151905060006a636f6e736f6c652e6c6f679050602083016000808483855afa5050505050565b600081359050611724816122c6565b92915050565b600081359050611739816122dd565b92915050565b60006020828403121561175157600080fd5b600061175f84828501611715565b91505092915050565b6000806040838503121561177b57600080fd5b600061178985828601611715565b925050602061179a85828601611715565b9150509250929050565b6000806000606084860312156117b957600080fd5b60006117c786828701611715565b93505060206117d886828701611715565b92505060406117e98682870161172a565b9150509250925092565b6000806040838503121561180657600080fd5b600061181485828601611715565b92505060206118258582860161172a565b9150509250929050565b60006020828403121561184157600080fd5b600061184f8482850161172a565b91505092915050565b61186181611e2c565b82525050565b61187081611e3e565b82525050565b600061188182611d7b565b61188b8185611d91565b935061189b818560208601611e81565b6118a481611f44565b840191505092915050565b60006118bc602383611d91565b91506118c782611f55565b604082019050919050565b60006118df602283611d91565b91506118ea82611fa4565b604082019050919050565b6000611902602283611d91565b915061190d82611ff3565b604082019050919050565b6000611925601583611d91565b915061193082612042565b602082019050919050565b6000611948601d83611d91565b91506119538261206b565b602082019050919050565b600061196b602683611d91565b915061197682612094565b604082019050919050565b600061198e601c83611d91565b9150611999826120e3565b602082019050919050565b60006119b1601283611d91565b91506119bc8261210c565b602082019050919050565b60006119d4600a83611d91565b91506119df82612135565b602082019050919050565b60006119f7602183611d91565b9150611a028261215e565b604082019050919050565b6000611a1a602583611d91565b9150611a25826121ad565b604082019050919050565b6000611a3d600083611d86565b9150611a48826121fc565b600082019050919050565b6000611a60602483611d91565b9150611a6b826121ff565b604082019050919050565b6000611a83602583611d91565b9150611a8e8261224e565b604082019050919050565b6000611aa6601f83611d91565b9150611ab18261229d565b602082019050919050565b611ac581611e6a565b82525050565b611ad481611e74565b82525050565b6000611ae582611a30565b9150819050919050565b6000604082019050611b046000830185611858565b611b116020830184611abc565b9392505050565b6000602082019050611b2d6000830184611867565b92915050565b60006020820190508181036000830152611b4d8184611876565b905092915050565b60006040820190508181036000830152611b6f8185611876565b9050611b7e6020830184611abc565b9392505050565b60006020820190508181036000830152611b9e816118af565b9050919050565b60006020820190508181036000830152611bbe816118d2565b9050919050565b60006020820190508181036000830152611bde816118f5565b9050919050565b60006020820190508181036000830152611bfe81611918565b9050919050565b60006020820190508181036000830152611c1e8161193b565b9050919050565b60006020820190508181036000830152611c3e8161195e565b9050919050565b60006020820190508181036000830152611c5e81611981565b9050919050565b60006020820190508181036000830152611c7e816119a4565b9050919050565b60006020820190508181036000830152611c9e816119c7565b9050919050565b60006020820190508181036000830152611cbe816119ea565b9050919050565b60006020820190508181036000830152611cde81611a0d565b9050919050565b60006020820190508181036000830152611cfe81611a53565b9050919050565b60006020820190508181036000830152611d1e81611a76565b9050919050565b60006020820190508181036000830152611d3e81611a99565b9050919050565b6000602082019050611d5a6000830184611abc565b92915050565b6000602082019050611d756000830184611acb565b92915050565b600081519050919050565b600081905092915050565b600082825260208201905092915050565b6000611dad82611e6a565b9150611db883611e6a565b9250827fffffffffffffffffffffffffffffffffffffffffffffffffffffffffffffffff03821115611ded57611dec611ee6565b5b828201905092915050565b6000611e0382611e6a565b9150611e0e83611e6a565b925082821015611e2157611e20611ee6565b5b828203905092915050565b6000611e3782611e4a565b9050919050565b60008115159050919050565b600073ffffffffffffffffffffffffffffffffffffffff82169050919050565b6000819050919050565b600060ff82169050919050565b60005b83811015611e9f578082015181840152602081019050611e84565b83811115611eae576000848401525b50505050565b60006002820490506001821680611ecc57607f821691505b60208210811415611ee057611edf611f15565b5b50919050565b7f4e487b7100000000000000000000000000000000000000000000000000000000600052601160045260246000fd5b7f4e487b7100000000000000000000000000000000000000000000000000000000600052602260045260246000fd5b6000601f19601f8301169050919050565b7f45524332303a207472616e7366657220746f20746865207a65726f206164647260008201527f6573730000000000000000000000000000000000000000000000000000000000602082015250565b7f45524332303a206275726e20616d6f756e7420657863656564732062616c616e60008201527f6365000000000000000000000000000000000000000000000000000000000000602082015250565b7f45524332303a20617070726f766520746f20746865207a65726f20616464726560008201527f7373000000000000000000000000000000000000000000000000000000000000602082015250565b7f4552524f525f5749544844524157494e475f4554480000000000000000000000600082015250565b7f45524332303a20696e73756666696369656e7420616c6c6f77616e6365000000600082015250565b7f45524332303a207472616e7366657220616d6f756e742065786365656473206260008201527f616c616e63650000000000000000000000000000000000000000000000000000602082015250565b7f4552524f525f4d5553545f4445504f5349545f534f4d455448494e4700000000600082015250565b7f4e4f5420454e4f5547482042414c414e43450000000000000000000000000000600082015250565b7f414d4f554e54203c203000000000000000000000000000000000000000000000600082015250565b7f45524332303a206275726e2066726f6d20746865207a65726f2061646472657360008201527f7300000000000000000000000000000000000000000000000000000000000000602082015250565b7f45524332303a207472616e736665722066726f6d20746865207a65726f20616460008201527f6472657373000000000000000000000000000000000000000000000000000000602082015250565b50565b7f45524332303a20617070726f76652066726f6d20746865207a65726f2061646460008201527f7265737300000000000000000000000000000000000000000000000000000000602082015250565b7f45524332303a2064656372656173656420616c6c6f77616e63652062656c6f7760008201527f207a65726f000000000000000000000000000000000000000000000000000000602082015250565b7f45524332303a206d696e7420746f20746865207a65726f206164647265737300600082015250565b6122cf81611e2c565b81146122da57600080fd5b50565b6122e681611e6a565b81146122f157600080fd5b5056fea26469706673582212209b5e163675aeaa4dc015986704798e1fc6330160d2ac63566d26cb2b2720f8aa64736f6c63430008040033",
  "linkReferences": {},
  "deployedLinkReferences": {}
}